:020000040800F2
:10000000600A00207502000893100008830F0008A2
:100010009110000855080008351500080000000080
:10002000000000000000000000000000DD010008EA
:10003000410D000800000000210200089112000894
:100040008F0200088F0200088F0200088F0200084C
:100050008F0200088F0200088F0200088F0200083C
:100060008F0200088F0200088F0200088F0200082C
:100070008F0200088F0200088F0200088F0200081C
:100080008F0200088F0200088F0200088F0200080C
:100090008F0200088F0200088F020008850D0008FB
:1000A0008F0200088F0200088F0200088F020008EC
:1000B0008F020008F51200088F0200088F02000866
:1000C0008F0200088F0200088F0200088F020008CC
:1000D0008F0200088F0200088F020008A913000891
:1000E0008F0200088F0200088F0200088F020008AC
:1000F0008F0200088F0200088F0200088F0200089C
:100100008F0200088F020008311300088F020008D8
:100110008F020008A71300088F0200088F02000852
:100120008F0200088F0200088F0200088F0200086B
:1001300000F002F800F042F80AA090E8000C8244B7
:100140008344AAF10107DA4501D100F037F8AFF294
:10015000090EBAE80F0013F0010F18BFFB1A43F0A5
:1001600001031847A0310000C0310000103A24BF3D
:1001700078C878C1FAD8520724BF30C830C144BF0C
:1001800004680C607047000000230024002500264E
:10019000103A28BF78C1FBD8520728BF30C148BFEA
:1001A0000B607047642900F0BD80732900F08E82D7
:1001B000002070471FB51FBD10B510BD00F01BFB20
:1001C0001146FFF7F7FF01F047FA00F039FB03B4DF
:1001D000FFF7F2FF03BC01F0B5F90000224B1968EC
:1001E0000868B0E8F00F80F30988BFF36F8F4FF015
:1001F000000080F311884EF00D0E704700000000E3
:1002000006480068006880F3088862B661B6BFF3EC
:100210004F8FBFF36F8F00DF00BF00BF08ED00E01E
:10022000EFF30980BFF36F8F0F4B1A6820E9F00FCF
:10023000106008B54FF0500080F31188BFF34F8F66
:10024000BFF36F8F02F072FA4FF0000080F3118855
:10025000BDE8084019680868B0E8F00F80F3098825
:10026000BFF36F8F704700BF40000020EFF30580A1
:10027000704700000948804709480047FEE7FEE74D
:10028000FEE7FEE7FEE7FEE7FEE7FEE7FEE7FEE746
:1002900004480549054A064B70470000A5120008AE
:1002A0003101000860040020600A00206006002080
:1002B00060060020704700000FB4044910B503AA7F
:1002C000029800F007FA10BC5DF814FB280000202B
:1002D00070B50C460546012A05D02878800600D561
:1002E000EA69002302E0012305E05B1C934202D28D
:1002F000E05C0028F9D1A869E618C01AA861286A4C
:10030000184428622846AFF3008004E0D5E90121B3
:1003100014F8010B9047B442F8D32846AFF300809D
:1003200070BD00002DE9F0410646002410687529D3
:10033000314616A510D0AFF30080002802DA404203
:1003400013A507E031688A0701D512A502E0490725
:1003500004D511A5012401E0AFF3008000210A2299
:1003600006F1240709E0B0FBF2FCB0FBF2F302FB5C
:100370001C00303078541846491C0028F3D123461D
:100380002A463046BDE8F04100F01DB900000000EB
:100390002D0000002B000000200000002DE9F05F80
:1003A000894604464FF0000ADFF874B1FB44C0F8F8
:1003B00020A02046E1688847002874D0252806D070
:1003C000D4E901219047206A401C2062F1E7002611
:1003D0005F462046E16888472028054607DB312D27
:1003E00005D2781910F8200C08B10643F1E7B007E0
:1003F00001D526F00406C4F81CA00027C4F818A0F4
:100400002A2D09D0284601F096F838B304EB870866
:10041000303DC8F8185019E059F8041B204604EB89
:1004200087029161E1688847012F054618D1E0698C
:10043000002820DA26F020061DE0D8F8180000EB8E
:10044000800005EB40003038C8F818002046E1680D
:100450008847054601F06FF80028EED1012F0AD039
:100460002E2D08D12046E16888477F1C0546022FC3
:1004700046F02006C4DBA069002803DA404246F0BB
:100480000106A061F00701D026F010066C2D0BD0FC
:10049000682D09D04C2D39D06A2D35D0742D35D02A
:1004A0007A2D33D016E038E0E1682F4620468847A1
:1004B000B842054609D16C2F26D04FF48060E16820
:1004C000064320468847054604E06C2F1AD04FF4B7
:1004D000807006430DB3A5F14100192802D82035DC
:1004E00046F400664A462946204626604E46FFF7F7
:1004F00059FE80B101280BD0F61D26F0070000F14F
:10050000080956E74020E4E78020D8E70020D6E736
:1005100006F104094DE7284652E7206ABDE8F09F3E
:10052000402F0000032A40F2308010F0030C00F04E
:10053000158011F8013BBCF1020F624498BF11F81D
:1005400001CB00F8013B38BF11F8013BA2F10402D6
:1005500098BF00F801CB38BF00F8013B11F003034E
:1005600000F0CA80083AC0F0088051F8043B083A0D
:1005700051F804CBA0E80810F5E7121D5CBF51F854
:10058000043B40F8043BAFF30080D20724BF11F8CE
:10059000013B11F801CB48BF11F8012B24BF00F833
:1005A000013B00F801CB48BF00F8012B704702F077
:1005B000FF0343EA032242EA024200F0D1B8704747
:1005C0007047704770472DE9F0470D4699469246AF
:1005D000044600F124080168880604D5E06921F08A
:1005E0001001216000E00120A84201DD471B00E06E
:1005F0000027A1697A1902EB0900081AA061207886
:10060000C00602D42046AFF30080002608E0D4E9FB
:1006100001211AF806009047206A401C761C2062CF
:100620004E45F4DB2078C0060AD52046AFF30080A3
:1006300006E0D4E9012130209047206A401C206266
:10064000381EA7F10107F4DC07E0D4E9012118F80E
:1006500005009047206A401C2062281EA5F1010574
:10066000F3DC2046AFF300802078000602D502209C
:10067000BDE8F0870120FBE701694A1C02610878A8
:10068000704700B58FB0CDE90131002105910549D2
:100690007944CDE9031011466846FFF77FFE0FB09D
:1006A00000BD0000E5FFFFFF10B5436913B1AFF3D4
:1006B000008001E0FFF70CFE012010BD127800F170
:1006C00024010A7000224A700122EDE711684FF000
:1006D000FF32E9E7074B70B50D467B44FFF7D1FFCA
:1006E0000446284600F05CF810B14FF0FF3070BDB2
:1006F000204670BD630F000010B5203AC0F00B809B
:10070000B1E81850203AA0E81850B1E81850A0E815
:100710001850BFF4F5AF5FEA027C24BFB1E818506F
:10072000A0E8185044BF18C918C0BDE810405FEADF
:10073000827C24BF51F8043B40F8043B08BF70475B
:10074000D20728BF31F8023B48BF11F8012B28BF60
:1007500020F8023B48BF00F8012B70474FF0000221
:100760000429C0F0128010F0030C00F01F80CCF1BF
:10077000040CBCF1020F18BF00F8012BA8BF20F831
:10078000022BA1EB0C0100F011B85FEAC17C24BF81
:1007900000F8012B00F8012B48BF00F8012B70472F
:1007A000007B00F0800070474FF0000200B5134658
:1007B00094469646203922BFA0E80C50A0E80C5081
:1007C000B1F12001BFF4F7AF090728BFA0E80C5032
:1007D00048BF0CC05DF804EB890028BF40F8042B2B
:1007E00008BF704748BF20F8022B11F0804F18BF98
:1007F00000F8012B7047754600F028F8AE4605005A
:100800006946534620F00700854618B020B5FFF72B
:100810003FFDBDE820404FF000064FF000074FF0CD
:1008200000084FF0000B21F00701AC46ACE8C0090E
:10083000ACE8C009ACE8C009ACE8C0098D46704717
:100840000446AFF300802046FFF7C1FC0048704724
:1008500000040020FEE70000F0B5827A2F4D012150
:1008600091402A6842F001022A602C4E1C36326800
:100870008A433260294A047B294B0C32A4B914689C
:100880008C4314604488C78844EA0744877A03EBA2
:10089000C707C7F840460488878844EA0744877A30
:1008A00003EBC707C7F84446047B012C12D1146838
:1008B0000C431460847A026803EBC4044FEA3242AA
:1008C000C4F84026847A426803EBC4034FEA3242FC
:1008D000C3F84426114AC37A121D002B136806D0B0
:1008E0000B4313600D4A0389143213B104E08B43A8
:1008F000F7E713688B4313600389012B02D1136858
:100900000B431360407B012802D1306808433060FC
:10091000286820F001002860F0BD0000006600405B
:100920000060004010B50368002223F0020303605A
:10093000036843F0010303604FF6FF7300E0521CAD
:100940004468E40701D19A42F9D14268D2073ED007
:100950008A79012A02683CD022F080020260CA79BA
:10096000012A026838D022F0400202600A7A012A85
:10097000026834D022F0200202604A7A012A02681A
:1009800030D022F0100202608A7A012A02682CD04C
:1009900022F008020260CA7A012A026828D022F0F6
:1009A000040202608A78CC78920742EA04620C79E9
:1009B00042EA04424C79098842EA0452491E0A4339
:1009C000C261016821F001010160002114E00020F2
:1009D00010BD42F08002C1E742F04002C5E742F09C
:1009E0002002C9E742F01002CDE742F00802D1E749
:1009F00042F00402D5E7491C4268D20701D099426F
:100A0000F9D14068C007E2D1012010BD02460020A4
:100A100029B1012902D1106900F003007047D068A4
:100A2000FAE700002DE9F04788B0894607461E46E0
:100A3000904601210820DDF840A000F073FB012161
:100A4000084600F06FFB0121480600F05FFB012122
:100A50004FF4EA1000F05EFA4FF40070ADF81C009D
:100A600003208DF81E001820224C8DF81F0007A9C6
:100A7000204600F001FAA015ADF81C0048208DF8C2
:100A80001F0007A9204600F0F7F900248DF8064062
:100A90008DF8084001258DF807408DF809508DF834
:100AA00002A08DF80A408DF803708DF804808DF84F
:100AB0000B408DF80590ADF8006069460E48FFF7D1
:100AC00031FF8DF816408DF817408DF81850ADF8AD
:100AD0000C40ADF81040ADF80E40ADF81240ADF846
:100AE00014408DF8195003A8FFF7B6FE08B0002097
:100AF000BDE8F087000C01400064004010B500EB39
:100B00000113D3F8B04114F004041472D3F8B041C7
:100B100033D0E4085460D3F8B04104F002045472B6
:100B2000D3F8B44104F00F049472D3F8B441240A0A
:100B3000D474D3F8B841D472D3F8B841240A1473EA
:100B4000D3F8B841240C5473D3F8B841240E9473ED
:100B5000D3F8BC41D473D3F8BC41240A1474D3F83D
:100B6000BC41240C5474D3F8BC311B0E937439B1BE
:100B7000016941F02001016110BD640D1460CAE7F4
:100B8000C16841F02001C16010BD30B502460020AF
:100B900093685B0108D49068000101D5012003E04F
:100BA0009068C00037D5022002EB0012D2F88031E5
:100BB00003F00103C2F880310B7A73B3D2F880419D
:100BC0004D681C434B7A43EAC5031C43C2F880417D
:100BD0008B7A03F00F038B72D2F8843123F00F036A
:100BE000C2F88431D2F884318C7A2343C2F884313C
:100BF000CB7ACC6843EA0423C2F88831CB7B0969FD
:100C000043EA0121C2F88C11D2F8801141F00101B0
:100C1000C2F8801130BD042030BDD2F880314C7A4A
:100C200023430C8843EA4453C2F88031D0E70000E4
:100C3000002221B1012905D0022906D112E08268E3
:100C4000114801E08268114802401149501A8A4255
:100C500014D00ADCA2B16FF0806010180FD0022807
:100C60000CD10FE082680B48EEE7B0F5007F09D0A9
:100C70000949401803D0B0F5003F03D00020704769
:100C800002207047012070470300000400030008A1
:100C900000010008000003100001FFF770B50E4EC0
:100CA0000D46044686B000213046FFF7AFFE00280F
:100CB00010D06A4600213046FFF720FF00982860D8
:100CC000002168464218D27A6254491C0829F9D397
:100CD0009DF80A0006B070BD00640040F0B585B014
:100CE0000023009212228DF8083001928DF809300D
:100CF0008DF80A106A4604E0C45CD5185B1CEC72DF
:100D00009BB28B42F8D30D4F11463846FFF73DFF9B
:100D10000646002440F6FF7501E0641CA4B231468B
:100D20003846FFF785FF08B9AC42F6D3AC4202D390
:100D3000012005B0F0BD0020FBE70000006400408A
:100D400070473EB5044617208DF8080008208DF83E
:100D5000090000258DF80A5001218DF80B1002A81A
:100D600000F098F9402000F039F8402000908DF80C
:100D7000045010208DF805008DF80640684600F0FC
:100D800043F83EBD10B5402000F02EF8D8B1402108
:100D90000F4800F0EBF80F4A20B10121104600F097
:100DA000E8FA10E000211446104600F0E2FA20466E
:100DB00000F0E9FA084948600021204600F0F1FA05
:100DC0000020FFF7BEFFBDE81040402000F006B84D
:100DD00000080140000C00401C0000200149086090
:100DE0007047000014040140064A014600201268C2
:100DF000044B0A4014331B680B4202D0002A00D077
:100E0000012070470004014030B51A4A8379016817
:100E100053B313688B431360111D0B680468A3431D
:100E20000B60017911440B68046823430B60114B7C
:100E3000083319680468A14319601C1D21680568FE
:100E4000A94321604179102905D011440A6800683E
:100E500002430A6030BD19680268114319602168B5
:100E600000680143216030BD0079104402688A4364
:100E7000026030BD00040140F0B5CC78002204F0DF
:100E80000F03E40601D58C7823430C784FF00F0C48
:100E900014F0FF0F4FF0010E1BD005680E880EFAFC
:100EA00002F42640A64210D196000CFA06F725EA75
:100EB000070703FA06F5CE783D43282E02D0482EC8
:100EC00002D002E0446100E00461521C082AE5D32C
:100ED00005600A88FF2A1CD94468002202F108062E
:100EE0000EFA06F50E882E40AE420ED196000CFA90
:100EF00006F7BC4303FA06F7CE783C43282E00D110
:100F00004561CE78482E00D10561521C082AE5D3F0
:100F10004460F0BDF0B5144C002801DAE36900E04C
:100F20006368450D2E0185B2C0F30157B540C0F38B
:100F30000342032F05D0C6020AD503269640B343C9
:100F400007E023F07062636823F07063636002E07F
:100F5000AB4343F0706201B12A43002801DAE26139
:100F6000F0BD6260F0BD00000000014002460020BC
:100F700092680A4200D001207047416170470161C8
:100F80007047FEE730B5054687B0012144F20800FE
:100F900000F0C8F80121084600F0C4F84FF40070D2
:100FA000ADF8100003208DF8120018201B4C8DF8AE
:100FB000130004A92046FFF75FFF2115ADF81010BC
:100FC00004208DF8130004A92046FFF755FF2520C3
:100FD0008DF8140006208DF8150000248DF81640B9
:100FE00001208DF8170005A800F054F8ADF8044072
:100FF000ADF80640ADF80840ADF80C400820084CAC
:10100000ADF80A0000956946204600F039FA012142
:10101000204600F00BFA07B030BD00000008014088
:1010200000380140F8B50121042000F07BF80820C9
:10103000ADF800001025144E8DF8035003248DF8F0
:10104000024069463046FFF717FF08213046FFF798
:1010500096FF0121102000F065F844F22000ADF861
:1010600000008DF803508DF80240084C6946204678
:10107000FFF702FFA9022046FFF781FF202120464B
:10108000FFF77BFFF8BD00000008014000100140A1
:10109000FEE7704730B50F23C27801780125F2B121
:1010A000144A126801F1E02102F4E062C2F5E06244
:1010B000120AC2F10404D3404278A24084781C4052
:1010C0001443220181F80024007800F01F018D40B4
:1010D0004009800000F1E020C0F8005130BD01F06F
:1010E0001F0085404809800000F1E020C0F88051D1
:1010F00030BD00000CED00E00249084302490860E1
:10110000704700000000FA050CED00E0044A0029D9
:10111000D16901D0014300E08143D16170470000F3
:1011200000100240044A0029916901D0014300E007
:1011300081439161704700000010024030B5204AA1
:101140005168204B11F00C0103D0042901D008296B
:1011500001D0036012E05168536801F470114FF040
:10116000020413F4803F04EB914102D053689B03C7
:1011700001D5154B00E0134B5943016051680F2313
:1011800003EA1111114B5C5C0168E1404160546855
:10119000072505EA14241C5D21FA04F484605468D0
:1011A00005EAD4241B5DD940C1605268032303EAD9
:1011B0009232064B1B1F9A5CB1FBF2F1016130BD0C
:1011C0000010024000127A0000093D0030000020AB
:1011D0000CB50022264800920192016841F480314A
:1011E00001604FF4A063016801F40031019100999E
:1011F000491C0091019911B900999942F3D10168F4
:10120000890333D5012101911A490A6842F010027D
:101210000A600A6822F003020A600A6842F00202C9
:101220000A604168416041684160416841F4806101
:101230004160416821F47C114160416841F4E8114A
:101240004160016841F08071016001688901FCD54D
:10125000416821F003014160416841F002014160B1
:101260004168C1F381010229FAD10CBD01920CBD84
:1012700000100240002002404FF0E02104280869DD
:1012800003D020F004000861704740F00400FAE742
:1012900010B501F0D1FD012803D0BDE8104001F0E8
:1012A000BFBA10BD0F4810B5016841F001010160DF
:1012B00041680D4A1140416001680C4A11400160CB
:1012C000016821F480210160416821F4FE01416040
:1012D0004FF41F018160FFF77BFF05494FF000606D
:1012E000086010BD001002400000FFF8FFFFF6FE8E
:1012F00008ED00E010B5084C0121204600F045F84B
:10130000012802D105A0FEF7D7FF2046BDE8104016
:10131000012100F02BB800000004004054494D3377
:10132000CAE4B3F62E2E2E2E2E2E2E0D0A0000000D
:1013300010B5084C0121204600F027F8012802D101
:1013400005A0FEF7B9FF2046BDE81040012100F0DE
:101350000DB80000000C004054494D35CAE4B3F606
:101360002E2E2E2E2E2E2E0D0A000000C943018295
:1013700070470029018802D041F0010101E021F00D
:10138000010101807047808C704702460020138A5B
:1013900092890B4202EA010202D0002A00D0012009
:1013A000704781847047704710B51B4C40F225513F
:1013B000204600F045F8F8B1204600F0B7F8C1B279
:1013C000164AFF2901D1107838B11378012B06D0C5
:1013D000022B09D0032B10D017E001200BE00802EC
:1013E00050805170022006E05088084350805078A9
:1013F000084450700320107007E05078814201D1FA
:10140000508850600020107050802046BDE8104089
:10141000272100F005B80000004800401C00002013
:101420000A0A01219140C94301807047002981893E
:1014300002D041F4005101E021F400518181704754
:1014400070B501F01F0501260024C1F3421306FA0E
:1014500005F2012B0FD0022B0FD0838A4FEA112106
:101460000088134206FA01F600EA060001D000B136
:101470000124204670BD8389F0E7038AEEE700006F
:1014800030B50446008A85B00D464CF6FF71084021
:10149000E98801432182A0894EF6F3110840A9880A
:1014A0002A8911436A8902431143A181A08A4FF618
:1014B000FF410840A9890143A1826846FFF73EFE2B
:1014C0001948844201D1039800E00298A1890904D7
:1014D00000EBC00101EB0010296801D5490000E0D4
:1014E0008900B0FBF1F06422B0FBF2F109010B09B5
:1014F0006FF018056B4300EB8300A3891D044FF0C8
:10150000320306D503EBC000B0FBF2F000F0070099
:1015100005E003EB0010B0FBF2F000F00F00084311
:10152000208105B030BD0000003801408088C0F344
:1015300008007047FEE730380A2801D201207047C2
:1015400000207047704700008CB01BA040F201647F
:10155000D0E90010CDE9071000200B9018A0FEF78D
:10156000ABFE2246082107A8FFF7B8FB642000F075
:101570002BFF0BA909A8FFF791FB01469DF8280056
:101580000DF10C0C9DF82B509DF82A309DF8292068
:101590008CE82D009DF825009DF827309DF8262029
:1015A0008DE80D009DF8243007A00B9AFEF784FE0D
:1015B000642000F009FFD1E70101000000000000F5
:1015C00073746172742100006C656E3A2564207337
:1015D000746469643A256420646174612025642020
:1015E0002564202564202564202564202564202589
:1015F000642025640D0A000010B50420FFF73CFEAE
:101600000C480D490D4A0068B0FBF1F3B0FBF1F155
:101610004FF47A7041431370012050804FF0E02066
:10162000026942F0020202614161016941F0010177
:10163000016110BD0800002040420F00240000207E
:1016400004490A885206FCD5024AC1B2121D118013
:1016500070470000003801401CB54FF44070FFF7A0
:101660004BFDFFF7C9FFFFF7DDFC4FF4E130FFF75B
:1016700089FC012404230822072100200094FFF79D
:10168000D1F906480023CDE90040802204A1074893
:1016900001F0A6FB00F0F8FF00201CBD00000020B8
:1016A00073746172745F7461736B0000652000086D
:1016B0002DE9F041184E0F460446F5683068001DCC
:1016C00000F0F8FC38B9306890F82C100120884000
:1016D000316981433161601C07D137B13168BDE8A0
:1016E000F0410E48091D00F01DBD30682C44AC428D
:1016F0004460316805D2B06BBDE8F041091D00F0CF
:10170000F9BC706B091D00F0F5FCB06A844200D290
:10171000B462BDE8F081000040000020C403002056
:101720002DE9F041054600F009FD2D4EB068401C42
:10173000B06030682B4F10B1706930B32BE035606A
:10174000B068012827D1002404EB840007EB800057
:1017500000F0C2FC641C202CF6D3234800F0BCFC33
:101760002148143000F0B8FC1F48283000F0B4FCC9
:101770001D483C3000F0B0FC1B48503000F0ACFC81
:10178000194870631430B06305E03068E96AC06AD4
:10179000884200D83560706A0121401C706268641C
:1017A000E86A326981401143316100EB800007EB48
:1017B0008000291D00F0B6FC00F0FCFC70690028D8
:1017C0000CD03068E96AC06A884207D207494FF0F6
:1017D00080500860BFF34F8FBFF36F8FBDE8F0817B
:1017E00040000020F40000207403002004ED00E01D
:1017F00010B500F0A3FC0E4C2068A0B90D4800F015
:101800006BFC0C48143000F067FC0A48E0601430B0
:10181000206100221021052001F018F8206010B18D
:1018200005A100F09DFDBDE8104000F0C3BC000024
:101830007C000020D8030020546D7251000000008D
:1018400070B5124E124D1CE000F068FF306820B1F8
:10185000002401F01FFCA4B901E00124F9E700F025
:101860006DFCF068C468201D00F024FCA868401ED0
:10187000A8606868401E686000F09CFC204600F08C
:1018800052F868680028DFD170BD0000B003002066
:101890004000002030B4026C0B46002A0BD0C16817
:1018A0001144C1604468A14201D30168C16030BCE9
:1018B0001846FEF737BE30BC70472DE9F041856B06
:1018C000174604460026026C82B1C7B1E068FEF7F5
:1018D00029FEE168206C091AE1602268914202D277
:1018E0006168081AE060022F16D017E02068A8B9D6
:1018F000606801F029FB0646002060600EE0A068E9
:10190000FEF710FE216CA0680844A0606168884260
:1019100004D32068A06001E005B16D1E6D1CA563B5
:101920003046BDE8F08110B50446006B00F074FC51
:101930002046BDE8104000F06FBC000010484FF496
:101940002041420706D0C01D0D4920F00700411A72
:10195000C1F520410B4A00230144C2E900030839C4
:10196000103A21F0070111604B600B600B1AC0E9BF
:10197000001393604FF000405360D0607047000048
:1019800000180020AC000020074E4FF08054074D97
:10199000FFF756FF30680128FAD92C60BFF34F8F4C
:1019A000BFF36F8FF4E70000F400002004ED00E0C7
:1019B0002DE9F047DDE909840E461746824691007D
:1019C0009946089DA522206BFEF7F1FD6FF00301FB
:1019D000206B01EB8701084420F00707780705D04A
:1019E00040F22D3219A11EA0FEF766FC002022183D
:1019F000315C82F83410315C11B1401C1028F6D3F0
:101A0000002684F84360202D00D31F25E562C4E939
:101A10001356201D00F06BFB04F1180000F067FB6B
:101A20002461C5F120006462A061666584F8586095
:101A30004A465146384600F003FB2060B8F1000FDB
:101A400001D0C8F80040BDE8F08700002E2E5C46AB
:101A500072656552544F535C7461736B732E6300EF
:101A60004572726F723A25732C25640D0A000000CE
:101A700030B5114900E011460A688242FBD34B6839
:101A80005C18844203D140681844486008464368A3
:101A90001C18944209D1084C103C2468A24209D079
:101AA00052681A4442600A6812680260814200D09B
:101AB000086030BD0460F9E7AC00002070B5002478
:101AC00041600B4D0061914206D8D11A8269914262
:101AD00006D2011D286907E09A4203D2994201D338
:101AE000012403E0011DE86800F004FB204670BDFE
:101AF0007C00002010B5044600F020FBA06B20B154
:101B0000002400F057FB204610BD0124F9E7000037
:101B10002DE9F34100980F460026846C2CB940F65D
:101B2000CE1216A11AA0FEF7C7FBA06BE16B88428C
:101B300005D340F6CF1211A115A0FEF7BDFBA06B97
:101B4000E16B88420CD294F945503A4669462046EA
:101B5000FFF7B3FE0646681C05D06D1C84F845509F
:101B60003046BDE8FC81606A0028F9D004F1240009
:101B700001F044FA0028F3D00126F1E72E2E5C464E
:101B800072656552544F535C71756575652E6300BF
:101B90004572726F723A25732C25640D0A0000009D
:101BA000F8B5054614480E46C068C068C468201DD4
:101BB00000F080FAE069012817D1A0692B4641198D
:101BC00032462046FFF77AFF78B1002003460146EF
:101BD00000902A46204601F043FB30B907494FF4F4
:101BE000027201F11800FEF767FB616A01B020463E
:101BF000BDE8F040084700007C000020C431000828
:101C000070B586B02F4E53E00198002806DADDE962
:101C10000301029A90470198002849DB039C606900
:101C200010B1201D00F046FA05A800F0A7F80546FF
:101C300001980A283CD2DFE800F00505053B27386B
:101C400005053B270298A169034601442A46204620
:101C5000FFF734FF00282BD0616A20468847E069EF
:101C6000012825D1002000900298A1690023421884
:101C70001946204601F0F4FAD0B940F2213212A1FF
:101C800017A0FEF719FB13E00298A06128B94FF4E2
:101C90004E720DA112A0FEF70FFBA0692B46411951
:101CA0001A462046FFF70AFF02E0204600F0B4FA89
:101CB00000231A4601A9306800F004FE0028A3D1D1
:101CC00006B070BD7C0000202E2E5C467265655209
:101CD000544F535C74696D6572732E63000000008D
:101CE0004572726F723A25732C25640D0A0000004C
:101CF000F8B50D46064600F011FD684600F03EF8C6
:101D00000446009810B101F0C5F9F8BD1148ADB115
:101D100001690968D9B10025311B2A46006800F025
:101D200031FB01F0B7F90028EFD10B494FF080509B
:101D30000860BFF34F8FBFF36F8FF8BDA642EBD89B
:101D400001F0A8F921463046FFF72AFFF8BD01252A
:101D5000E2E700007C00002004ED00E00648416B53
:101D6000096829B1416BC968C968496881627047CF
:101D70004FF0FF31FAE700004000002070B5054643
:101D800001F068F8064E0446B068844203D200F0C1
:101D900009F8012000E0002028602046B46070BDF2
:101DA0007C000020F8B5184E26E0C068C4680568BD
:101DB000201D00F07FF9616A20468847E06901280C
:101DC0001AD1A0692844A84206D924616060211D67
:101DD000F06800F08FF90FE0002003460146009004
:101DE0002A46204601F03CFA30B9084940F29232C6
:101DF00001F11800FEF760FAF06801680029D4D1FB
:101E00003169C6E90310F8BD7C000020C431000828
:101E100008484068401C04D0F42207A111A0FEF736
:101E20004BFA502080F31188BFF34F8FBFF36F8FB1
:101E3000FEE70000900000202E2E5C467265655281
:101E4000544F535C706F727461626C655C5256449F
:101E5000535C41524D5F434D335C706F72742E631F
:101E6000000000004572726F723A25732C25640DD4
:101E70000A000000084CE068016839B1002139B15E
:101E80000020FFF735FFFFF7BBFEF4E70121F6E77F
:101E9000C0680068F5E700007C0000202DE9F041F3
:101EA000044600F04BF994F9455004F1240610E083
:101EB000A06C20B100212046FFF72AFE04E0606AF2
:101EC00048B1304601F09AF808B100F019FB6D1ED8
:101ED0006DB2002DECDC4FF0FF3684F8456000F069
:101EE00069F900F02BF994F9445004F1100709E066
:101EF000206948B1384601F081F808B100F000FBD4
:101F00006D1E6DB2002DF3DC84F84460BDE8F04135
:101F100000F050B92DE9F0410546002600F0FEFB27
:101F2000324F386808B9FFF709FDF86805424FD10C
:101F3000002D4DD0083568070BD005F00700C0F123
:101F400008000544680704D0BF2229A132A0FEF78B
:101F5000B3F9002D3CD07868854239D82349103137
:101F60000846046801E0214604466068A84202D29F
:101F700020680028F7D13868B846844228D00E6817
:101F80002068086060680836401B10280ED9671961
:101F9000780704D0EC2216A11FA0FEF78DF9606827
:101FA000401B786038466560FFF762FD6168D8F8CD
:101FB00004004246401AC8F80400D8F80830984295
:101FC00000D29060D8F80C0001430020C4E9000161
:101FD00001F060F8700705D04FF4967204A10EA0CE
:101FE000FEF76AF93046BDE8F08100009C00002051
:101FF0002E2E5C4672656552544F535C706F72743E
:1020000061626C655C4D656D4D616E675C686561B4
:10201000705F342E630000004572726F723A257350
:102020002C25640D0A0000000449086818B10868EE
:10203000026D521C026508687047000040000020D5
:1020400010B5031F4FF080741C601B1F21F00101AD
:102050001960191F024B0B60143940380A6010BD1B
:10206000111E00081CB500F069F80C491E20CDE9CE
:10207000000100234FF4807209A10C4800F0B0FE6B
:102080000648001F006800F0D5F909490020C1F892
:102090009401BDE81C4000F08DB800000400002051
:1020A00063616E5F7461736B000000004915000886
:1020B00000002242D0E9013201699A60D0E901238F
:1020C0005A604A68824201D182684A6000220261F5
:1020D0000868401E0860704700F108014FF0FF32A9
:1020E000C0E90112C1600161002101607047002157
:1020F0000161704730B50C68621C02D000F1080223
:1021000002E0026904E01A4653681D68A542FAD944
:1021100053684B6099608A60516008610168491C8E
:10212000016030BD42684A6093688B609368596073
:10213000916008610168491C01607047502080F37C
:102140001188BFF34F8FBFF36F8F09494868401C58
:10215000486001280AD10748006810F0FF0F05D039
:102160004FF4BD7204A10FA0FEF7A6B8704700009F
:102170009000002004ED00E02E2E5C467265655252
:10218000544F535C706F727461626C655C5256445C
:10219000535C41524D5F434D335C706F72742E63DC
:1021A000000000004572726F723A25732C25640D91
:1021B0000A00000010B5084C606828B940F281128E
:1021C00006A111A0FEF778F86068401E606001D19A
:1021D00080F3118810BD0000900000202E2E5C4678
:1021E00072656552544F535C706F727461626C65B6
:1021F0005C525644535C41524D5F434D335C706FAB
:1022000072742E63000000004572726F723A25737B
:102210002C25640D0A00000070B500282AD0164D48
:10222000A0F108046068E968084205D14FF4A07283
:1022300012A11CA0FEF740F8206828B140F241121C
:102240000EA118A0FEF738F86068E968084211D0BE
:102250002268002A0ED18843606000F05FFA60684F
:102260006968084468602046FFF702FCBDE87040DA
:1022700000F010BF70BD00009C0000202E2E5C46B8
:1022800072656552544F535C706F727461626C6515
:102290005C4D656D4D616E675C686561705F342E85
:1022A000630000004572726F723A25732C25640D2D
:1022B0000A00000006484FF47A710068B0FBF1F1A3
:1022C0004FF0E020491E4161072101617047000085
:1022D0000800002010B5FDF7C9FF104C10280CD3E2
:1022E00000F1E02090F8F0032178884205D240F216
:1022F000AA220BA115A0FDF7DFFF18480068A1680E
:1023000000F4E060884207D9BDE8104040F2BA22EC
:1023100003A10EA0FDF7D0BF10BD0000900000206B
:102320002E2E5C4672656552544F535C706F72740A
:1023300061626C655C525644535C41524D5F434D43
:10234000335C706F72742E63000000004572726F10
:10235000723A25732C25640D0A0000000CED00E094
:1023600010B5074B002253F832401CB1521C082A0A
:10237000F9D310BD43F8321003EBC201486010BD21
:10238000B400002070B515460E460446FFF7D6FE91
:1023900094F944100020491C01D184F8440094F9B8
:1023A0004510491C01D184F84500FFF703FFA06BDD
:1023B00028B92A46314604F1240000F0D1F820461D
:1023C000BDE87040FFF76ABD10B5040012D00E4999
:1023D000096B29B140F2D1420CA111A0FDF76CFFAD
:1023E00000F09CF900212046FFF762F900F052FE50
:1023F000002807D10E494FF080500860BFF34F8F7F
:10240000BFF36F8F10BD0000400000202E2E5C46F1
:1024100072656552544F535C7461736B732E630025
:102420004572726F723A25732C25640D0A00000004
:1024300004ED00E070B50446FFF780FE234D04B9BB
:102440002C68201DFFF736FE58B9E06A204A00EBE1
:10245000800152F8211021B9012181402869884367
:102460002861A06A18B104F11800FFF723FE686A1A
:10247000401C68622868844207D1211D1548FFF777
:1024800051FE6868401C686007E0A868401EA860AC
:102490002046FFF748FAFFF761FCFFF78BFE6869FB
:1024A000002812D0286884420FD1286B28B140F24E
:1024B000674209A10DA0FDF7FFFE10494FF08050C3
:1024C0000860BFF34F8FBFF36F8F70BD40000020D7
:1024D000F4000020B00300202E2E5C467265655289
:1024E000544F535C7461736B732E63004572726F4B
:1024F000723A25732C25640D0A00000004ED00E0FB
:1025000001490120C86170474000002070B50D46A8
:10251000040005D140F6083207A10CA0FDF7CCFE5F
:102520000E48016820461831FFF7E4FD2846BDE853
:1025300070400121FFF7BCB82E2E5C4672656552D3
:10254000544F535C7461736B732E63004572726FEA
:10255000723A25732C25640D0A000000400000200B
:1025600070B514460E46050005D140F6333209A178
:102570000DA0FDF7A1FE1048016828461831FFF7AD
:10258000D1FD0CB14FF0FF3621463046BDE870401A
:10259000FFF78EB82E2E5C4672656552544F535C21
:1025A0007461736B732E63004572726F723A257398
:1025B0002C25640D0A0000004000002070B50400C6
:1025C00039D01D4DE06A2968C96A884233D2A069B2
:1025D000002804DB2868C06AC0F12000A061E06A1E
:1025E000164E00EB8000616906EB800081421FD12E
:1025F000201DFFF75FFD012150B9E06A00EB80026A
:1026000056F8222022B92A6901FA00F082432A6191
:102610002868C06AE0622A6981401143296100EBA1
:10262000800006EB8000211DBDE87040FFF77ABDF9
:102630002868C06AE06270BD40000020F4000020FD
:1026400010B5040005D140F6C33205A109A0FDF77D
:1026500033FE0C48016A2160C068606010BD000054
:102660002E2E5C4672656552544F535C7461736BD9
:10267000732E63004572726F723A25732C25640DB8
:102680000A000000400000201CB517480024CDE9D6
:1026900000402346822215A1164800F0A1FB012824
:1026A00003D100F0A3FD01280AD0401C1BD102B0C9
:1026B00040F28672BDE810400FA114A0FDF7FCBDEA
:1026C000502080F31188BFF34F8FBFF36F8F064800
:1026D0004FF0FF312C38816201214161C460BDE8B7
:1026E0001C4000F061B81CBD6C00002049444C4502
:1026F00000000000891900082E2E5C4672656552A4
:10270000544F535C7461736B732E63004572726F28
:10271000723A25732C25640D0A0000000248016BF3
:10272000491C0163704700004000002070B5134D44
:10273000286B10B10120E86170BD0020E8612869B4
:102740000F4EB0FA80F0C0F11F0000EB800456F885
:10275000240028B940F6F8220AA10FA0FDF7ACFD2D
:1027600006EB840000F1080241684968416091422B
:1027700001D149684160C868286070BD40000020F0
:10278000F40000202E2E5C4672656552544F535C57
:102790007461736B732E63004572726F723A2573A6
:1027A0002C25640D0A0000001CB51A490878019018
:1027B000FF20087008788DF800009DF80000164A88
:1027C00000F0500010700720906007E09068401EF5
:1027D00090609DF8000040008DF800009DF800001A
:1027E0000006F3D4107A000200F4E06090600198D3
:1027F00008700A48016841F470010160016841F005
:1028000070410160FFF756FD00205060FDF7F8FCB5
:1028100000201CBD00E400E09000002020ED00E05E
:1028200010B5502080F31188BFF34F8FBFF36F8F27
:1028300000F016FB18B104494FF0805008600020EA
:1028400080F3118810BD000004ED00E02DE9F04197
:1028500017460E46050005D14FF4C47210A115A00D
:10286000FDF72AFDBEB105FB06F05430FFF752FB21
:1028700004000ED004F154007EB12060C4E90F566C
:102880002046012100F0E0F884F850700021204635
:10289000A164BDE8F0810020E7E72460EEE70000D6
:1028A0002E2E5C4672656552544F535C717565758A
:1028B000652E63004572726F723A25732C25640D84
:1028C0000A0000002DE9FF4F83B09B468A460400B2
:1028D0004FF0000605D140F2DC4251A155A0FDF7B2
:1028E000EBFCBAF1000F07D1206C28B140F2DD42B9
:1028F0004BA150A0FDF7E0FC00F09EFA38B9059816
:1029000028B14FF49C6246A14AA0FDF7D5FC4FF0D8
:1029100000094FF08057DFF82C81FFF70FFCA56B03
:1029200045B351462046E668FEF7B4FFBBF1000F01
:1029300013D0E660606A50B104F1240000F05EFB41
:1029400028B1C8F80070BFF34F8FBFF36F8FFFF748
:1029500031FC012007B0BDE8F08F6D1EA563206833
:1029600010B9FFF761FB606020690028EFD004F127
:102970001000E3E7059808B11EB106E0FFF71AFC66
:1029800027E06846FFF75CFE0126FFF713FCFFF720
:10299000C5FEFFF7D3FB94F94400401C01D184F835
:1029A000449094F94500401C01D184F84590FFF70C
:1029B00001FC05A9684600F0CFF9002820460AD09E
:1029C000FFF76CFA00F066FB2046FFF793F800284B
:1029D000A3D00020BEE7FFF78DF8D8B1206830B94A
:1029E000FFF7ACFB6068FFF7E9FDFFF7E3FB04F1DD
:1029F00024000599FFF78AFD2046FFF74FFA00F003
:102A000049FB002889D1C8F80070BFF34F8FBFF38E
:102A10006F8F82E72046FFF741FA00F03BFB7CE72F
:102A20002E2E5C4672656552544F535C7175657508
:102A3000652E63004572726F723A25732C25640D02
:102A40000A00000004ED00E070B50D46040005D159
:102A500040F21B121CA121A0FDF72EFCFFF76EFB1C
:102A6000D4E90F20216802FB001161600021A163FD
:102A70002168A1600A46D4E90F01401E00FB012134
:102A8000E16021464FF0FF3001F8440F487004F137
:102A900010004DB1FFF720FB04F12400FFF71CFBF1
:102AA000FFF788FB012070BD21690029F8D000F0F4
:102AB000A5FA0028F4D00D494FF080500860BFF30C
:102AC0004F8FBFF36F8FEBE72E2E5C46726565521A
:102AD000544F535C71756575652E63004572726F56
:102AE000723A25732C25640D0A00000004ED00E005
:102AF0002DE9FF4F83B099468B4604004FF0000646
:102B000005D140F2D92252A156A0FDF7D5FBBBF169
:102B1000000F07D1206C28B140F2DA224CA151A05D
:102B2000FDF7CAFBB9F1020F08D1E06B012805D00F
:102B300040F2DB2246A14BA0FDF7BEFB00F07CF982
:102B400038B9059828B140F2DE2241A145A0FDF731
:102B5000B3FB4FF0000A4FF08057DFF81881FFF702
:102B6000EDFAA06BE16B884206D3B9F1020F03D0F6
:102B7000059800B316B325E04A4659462046FEF7AD
:102B80009CFEA16C21B149462046FEF7C1FF05E03D
:102B9000616A19B104F1240000F030FA28B1C8F8D4
:102BA0000070BFF34F8FBFF36F8FFFF703FB012060
:102BB00007B0BDE8F08FFFF7FDFA21E06846FFF7A8
:102BC0003FFD0126FFF7F6FAFFF7A8FDFFF7B6FA7B
:102BD00094F94400401C01D184F844A094F94500C4
:102BE000401C01D184F845A0FFF7E4FA05A9684626
:102BF00000F0B2F830B12046FFF750F900F04AFA81
:102C00000020D5E7FFF79AFAA06BE16B884201D16B
:102C1000012500E00025FFF7CDFA95B104F1100081
:102C20000599FFF773FC2046FFF738F900F032FAF8
:102C3000002894D1C8F80070BFF34F8FBFF36F8F97
:102C40008DE72046FFF72AF900F024FA87E7000015
:102C50002E2E5C4672656552544F535C71756575D6
:102C6000652E63004572726F723A25732C25640DD0
:102C70000A00000004ED00E02DE9F04798461546F3
:102C80008946040005D140F29F322AA12EA0FDF70B
:102C900013FBB9F1000F07D1206C28B14FF4687213
:102CA00024A129A0FDF708FBB8F1020F08D1E06BC1
:102CB000012805D040F2A1321EA123A0FDF7FCFAA5
:102CC000FFF708FB5020EFF3118780F31188BFF363
:102CD0004F8FBFF36F8FA06BE16B884207D3B8F1C2
:102CE000020F04D0002087F31188BDE8F08794F923
:102CF0004560424649462046FEF7DFFD701C04D081
:102D0000761C84F845600120EDE7A06C012620B117
:102D100041462046FEF7FCFE06E0606A0028F2D03D
:102D200004F1240000F06AF90028ECD0002DEAD06C
:102D30002E60E8E72E2E5C4672656552544F535C58
:102D400071756575652E63004572726F723A2573F1
:102D50002C25640D0A00000070B50D46040005D155
:102D600040F6CD3214A119A0FDF7A6FA2DB940F610
:102D7000CE3211A115A0FDF79FFAFFF7DFF9174A30
:102D8000D06829684B1C0FD02368126A934202D086
:102D9000626882420AD96268801A884206D2081A9A
:102DA00028602046FFF74CFC002400E00124FFF7D8
:102DB00001FA204670BD00002E2E5C4672656552F9
:102DC000544F535C7461736B732E63004572726F62
:102DD000723A25732C25640D0A0000004000002083
:102DE0002DE9FF5F8346DDE90E87994616468A4640
:102DF0009000FFF78FF805001AD05C20FFF78AF8E3
:102E0000040012D025630021CDE90241CDE90087FD
:102E10004B46324651465846FEF7CAFD2046FEF75D
:102E20007FFC012004B0BDE8F09F2846FFF7F4F9CD
:102E30004FF0FF30F6E700000548416919B1006B1B
:102E400018B1002070470120704702207047000031
:102E5000400000200148C06870470000400000208A
:102E60002DE9F0412D4F0026386B40B1B869401C68
:102E7000B861F86900B101263046BDE8F081FD680F
:102E80006D1CFD6011D1786B006828B140F6DB1233
:102E900023A128A0FDF710FA786BB96B7963B863AA
:102EA000386A401C3862FEF759FFB86ADFF8948030
:102EB000854209D3786B006880B1786BC068C468BC
:102EC000606885420DD2B8623868C06A00EB800144
:102ED00058F821000128CCD90126CAE74FF0FF306D
:102EE000F1E7201DFFF7E6F8A06A18B104F1180019
:102EF000FFF7E0F8E06A01213A6981401143396146
:102F000000EB800108EB8100211DFFF70BF9E06A5F
:102F10003968C96A8842CDD30126CBE7400000203A
:102F20002E2E5C4672656552544F535C7461736B10
:102F3000732E63004572726F723A25732C25640DEF
:102F40000A000000F400002070B504004FF00006F5
:102F50003CD01F4D2868844205D040F6C9621DA1AF
:102F600021A0FDF7A9F9206D28B940F6CB6219A17F
:102F70001DA0FDF7A1F9206D401E2065E26CE16AFD
:102F8000914223D010BB201DFFF794F81A4901226B
:102F900050B9E06A00EB800351F8233023B92B6964
:102FA00002FA00F083432B61E06CE062C0F1200084
:102FB000A061E06A2B6982401A432A6100EB80001D
:102FC00001EB8000211DFFF7ADF80126304670BDF2
:102FD000400000202E2E5C4672656552544F535CB3
:102FE0007461736B732E63004572726F723A25734E
:102FF0002C25640D0A000000F40000202DE9F041AA
:10300000C068C4682CB940F6633216A11AA0FDF757
:1030100053F904F118000746FFF74CF81A4D286BD6
:10302000012660B139461948FFF77CF8E06A296843
:10303000C96A884213D90120EE61BDE8F081201DE4
:10304000FFF738F8E06A2A6906FA00F111432961AE
:103050000F4900EB800001EB8000211DE4E7002018
:10306000EBE700002E2E5C4672656552544F535CB0
:103070007461736B732E63004572726F723A2573BD
:103080002C25640D0A000000400000209C03002055
:10309000F40000202DE9F0472B4D00242746286B33
:1030A00028B940F2EA7229A12DA0FDF705F9FFF732
:1030B00045F8286B401E2863286BE8BBA8682C499C
:1030C0000126C8B3A1F52A798846D8F80010E9B1DD
:1030D000D8F80C00C46804F11800FEF7EBFF201DBF
:1030E000FEF7E8FFE06A2A6906FA00F11143296158
:1030F00000EB800109EB8100211DFFF713F8E06A66
:103100002968C96A8842E0D3EE61DEE70CB1FEF7B8
:1031100025FEAC693CB1FFF7A3FE00B1EE61641E71
:10312000F9D10020A861E86930B1124901273807B8
:103130000860BFF34F8F00E001E0BFF36F8FFFF730
:1031400039F83846BDE8F087400000202E2E5C4656
:1031500072656552544F535C7461736B732E6300D8
:103160004572726F723A25732C25640D0A000000B7
:103170009C03002004ED00E02DE9F0470746994646
:1031800016460D462C20DDF820A0FEF7C3FE0400F5
:1031900014D0B8464F46D1462DB94FF4C67209A196
:1031A0000EA0FDF789F8FEF723FB04F11801C4F81F
:1031B000008081E8E002201DFEF799FF2046BDE86F
:1031C000F08700002E2E5C4672656552544F535CAA
:1031D00074696D6572732E63000000004572726F32
:1031E000723A25732C25640D0A0000001CB50024DA
:1031F000FEF7FEFA0C48006868B10B491F20091D54
:10320000CDE9000100234FF4827208A10948FFF7BD
:10321000E7FD040005D140F2331207A10CA0FDF731
:103220004BF820461CBD00007C000020546D72202D
:1032300053766300751E00082E2E5C46726565523B
:10324000544F535C74696D6572732E630000000007
:103250004572726F723A25732C25640D0A000000C6
:103260002DE9FF47DDF830A0994690460D4606004F
:103270004FF0000705D14FF4D37212A117A0FDF74C
:103280001BF81A4C206880B1CDE900580296062D33
:1032900011DAFFF7D1FD02284FF0000309D0002218
:1032A00069462068FFF724FC074604B03846BDE8AD
:1032B000F0875246F4E700234A466946FFF7DCFCF4
:1032C000F2E700002E2E5C4672656552544F535C47
:1032D00074696D6572732E63000000004572726F31
:1032E000723A25732C25640D0A0000007C00002032
:1032F00004000008000000000000000200010000BF
:10330000100000002433000800000020B40000007A
:103310006C010008D8330008B40000204CB700004E
:1033200088010008000000000000000000A24A041C
:103330000000000000000000010203040607080965
:10334000000000000000000000000000000000007D
:103350000204060800000000010203040102030445
:10336000060708090000000000000000000000003F
:10337000000000000000000000000000000000004D
:10338000000000000000000000000000000000003D
:10339000000000000000000000000000000000002D
:1033A000000000000000000000000000000000001D
:1033B0000000000000000000AAAAAAAA0000000065
:1033C00000000000000000000000000000000000FD
:0833D0000000000000000000F5
:0400000508000131BD
:00000001FF
